S00D00006932635F322E7372656388
S11300000C942A000C9447000C9447000C9447006D
S11300100C9447000C9447000C9447000C94470040
S11300200C9447000C9447000C9447000C94470030
S11300300C9447000C9447000C9447000C94470020
S11300400C9447000C9447000C9447000C94470010
S11300500C94470011241FBECFE5D8E0DEBFCDBF0E
S113006010E0A0E6B0E0EAE8F9E002C005900D92E5
S1130070A03EB107D9F720E0A0EEB0E001C01D9288
S1130080A13EB207E1F70E9473000C94C3040C94E0
S11300900000BC0190E00DC0292F30E0FB01E20F0D
S11300A0F31F4081F901E553FF4F2081421305C03E
S11300B09F5F943088F381E0089580E0089540E0E4
S11300C060E081E00E94FA0241E060E081E00E9489
S11300D06D03089560E081E00E94E00391E08111E6
S11300E090E0892F0895CF93DF9300D000D0CDB74F
S11300F0DEB70E9410020E9424010E94D9020E94CD
S11301005F0000E080E008C0E1E0F0E0EC0FFD1FDC
S1130110E80FF11D10828F5F8430B0F30E94D50286
S113012080E690E00E948D0260E081E00E94A002DF
S113013010E00FC0E12EF12C0E944901E1E0F0E053
S1130140EC0FFD1FEE0DFF1D80838AE20E941F024B
S11301501F5F143078F3CE0101960E944900882372
S1130160A1F10E94D50280E790E00E948D028AE509
S11301700E94E7022FE332E48FE0215030408040B8
S1130180E1F700C000000E946A008823E1F383EDD8
S113019090E30197F1F700C000000E946A0081110A
S11301A0FCCF0E94D50280E890E00E948D0280E09E
S11301B00E94E7029FE32DE033E09150204030405D
S11301C0E1F700C0000000E09DCF0F5F0330F0F0C6
S11301D00E94D50280E990E00E948D0260E081E0F7
S11301E00E94A0028CE990E00E948D0280E00AC087
S11301F09FE32DE033E0915020403040E1F700C010
S113020000008F5F8E31A0F300E07CCF0E94D50206
S11302108CEA90E00E948D0260E081E00E94A002DE
S113022083E090E0801B91090E94B7028CEB90E080
S11302300E948D028FE79AE126E081509040204091
S1130240E1F700C000005ECFCF93DF93C0E00BC0A6
S113025040E06C2F80E00E94FA0241E06C2F80E0C5
S11302600E946D03CF5FC43098F3C0E00DC0D4E0AA
S1130270DC0F41E06D2F80E00E94FA0241E06D2F17
S113028080E00E946D03CF5FC43088F3DF91CF918B
S11302900895CF93DF93D0E02EC06FEF80E00E94EB
S11302A0260440E064E06D0F80E00E946D03C0E02E
S11302B01FC06C2F80E00E94E003811118C083ED01
S11302C090E30197F1F700C000006C2F80E00E94DA
S11302D0E0038823D1F3EC2FF0E0EE0FFF1FEE0FC5
S11302E0FF1FE153FF4FED0FF11D808107C0CF5F6A
S11302F0C430F8F2DF5FD43080F2CDCFDF91CF91FC
S11303000895CF93C82F0E943F040E944F04883061
S113031091F480E40E9448040E944F04883169F4F7
S11303208C2F0E9448040E944F04883241F40E949A
S1130330450481E005C080E003C080E001C080E0A6
S1130340CF910895CF93C82F8091E0008E7F809342
S1130350E0000E9481018091E0008D7F8093E000A5
S11303600E94810189EF90E00197F1F700C000003D
S11303708091E00084608093E0000E94810189EF15
S113038090E00197F1F700C000008091E0008F70C9
S11303909C2F907F892B8093E0000E94810189EF3C
S11303A090E00197F1F700C000008091E0008B7F9E
S11303B08093E0000E94810189EF90E00197F1F7BA
S11303C000C000008091E00084608093E0000E94FF
S11303D0810189EF90E00197F1F700C0000090E1FE
S11303E0C99F900111248091E0008F70822B80932B
S11303F0E0000E94810189EF90E00197F1F700C0CD
S113040000008091E0008B7F8093E0000E948101D6
S113041089EF90E00197F1F700C00000CF910895B3
S11304200E94380482E00E94A20188E20E94A20194
S11304308FE00E94A20181E00E94A2010895CF935F
S1130440C82F8091E00081608093E0000E948101C8
S11304508091E0008D7F8093E0000E94810189EF0C
S113046090E00197F1F700C000008091E000846003
S11304708093E0000E94810189EF90E00197F1F7F9
S113048000C000008091E0008F709C2F907F892B2A
S11304908093E0000E94810189EF90E00197F1F7D9
S11304A000C000008091E0008B7F8093E0000E94F8
S11304B0810189EF90E00197F1F700C0000080917D
S11304C0E00084608093E0000E94810189EF90E065
S11304D00197F1F700C0000090E1C99F9001112439
S11304E08091E0008F70822B8093E0000E94810154
S11304F089EF90E00197F1F700C000008091E000DF
S11305008B7F8093E0000E94810189EF90E0019746
S1130510F1F700C00000CF9108950F931F93CF937C
S11305208C01C0E003C00E941F02CF5FF801EC0FF2
S1130530F11D80818111F7CFCF911F910F91089503
S1130540813031F070F0823031F0833039F00AC0FC
S113055090E4960F07C090E1960F04C090E5960FC3
S113056001C0962F892F80680E94A2010895CF931D
S1130570DF93CDB7DEB760970FB6F894DEBF0FBE3A
S1130580CDBF4AE050E0BE016F5F7F4F0E948304FD
S1130590CE0101960E948D0260960FB6F894DEBFDC
S11305A00FBECDBFDF91CF91089581E00E94A201DB
S11305B0089541E065E083E00E94FA0282E88FBD7D
S11305C08AE18EBD80E49CE997BD86BD0895282FFD
S11305D030E0A8EEB3E00E94740424EB30E040E085
S11305E050E00E94520428513C4F220F331F3BBD60
S11305F02ABD0895683008F06FC0843008F06CC0DC
S1130600813001F130F08230B1F1833009F44CC013
S11306100895413059F42AB381E090E002C0880F74
S1130620991F6A95E2F7822B8ABB08952AB381E069
S113063090E002C0880F991F6A95E2F780958223A3
S11306408ABB0895413059F427B381E090E002C099
S1130650880F991F6A95E2F7822B87BB089527B309
S113066081E090E002C0880F991F6A95E2F78095B7
S1130670822387BB0895413059F424B381E090E08C
S113068002C0880F991F6A95E2F7822B84BB0895F4
S113069024B381E090E002C0880F991F6A95E2F7C5
S11306A08095822384BB0895413059F421B381E0BD
S11306B090E002C0880F991F6A95E2F7822B81BBF4
S11306C0089521B381E090E002C0880F991F6A95D4
S11306D0E2F78095822381BB0895683008F06FC0EB
S11306E0843008F06CC0813001F130F08230B1F117
S11306F0833009F44CC00895413059F42BB381E0A0
S113070090E002C0880F991F6A95E2F7822B8BBB99
S113071008952BB381E090E002C0880F991F6A9579
S1130720E2F7809582238BBB0895413059F428B3B6
S113073081E090E002C0880F991F6A95E2F7822B4E
S113074088BB089528B381E090E002C0880F991F08
S11307506A95E2F78095822388BB0895413059F465
S113076025B381E090E002C0880F991F6A95E2F7F3
S1130770822B85BB089525B381E090E002C0880FE9
S1130780991F6A95E2F78095822385BB08954130CD
S113079059F422B381E090E002C0880F991F6A9552
S11307A0E2F7822B82BB089522B381E090E002C07D
S11307B0880F991F6A95E2F78095822382BB08957A
S11307C06830B0F58430B0F5813089F028F082309B
S11307D0C9F0833011F130C089B390E002C095951F
S11307E087956A95E2F780FF29C081E0089586B372
S11307F090E002C0959587956A95E2F780FF20C046
S113080081E0089583B390E002C0959587956A9539
S1130810E2F780FF17C081E0089580B390E002C042
S1130820959587956A95E2F780FF0EC081E008955B
S113083080E0089580E0089580E0089580E00895C0
S113084080E0089580E0089580E00895843078F48D
S1130850813041F028F0823039F0833039F0089546
S11308606BBB089568BB089565BB089562BB08958A
S113087082E080B911B882B984E086BF089584EA21
S113088086BF06B607FEFDCF089584E986BF0895A6
S113089083B984E886BF06B607FEFDCF089581B10B
S11308A0887F0895A1E21A2EAA1BBB1BFD010DC06F
S11308B0AA1FBB1FEE1FFF1FA217B307E407F5070C
S11308C020F0A21BB30BE40BF50B661F771F881FE8
S11308D0991F1A9469F760957095809590959B017E
S11308E0AC01BD01CF010895A29FB001B39FC00127
S11308F0A39F700D811D1124911DB29F700D811D48
S11309001124911D08954532510520F4423010F010
S11309100C948E04FB011082CB010895BB274A304E
S113092031F4992322F4BDE2909581959F4F0C9464
S11309309A04BB27FB015527AA27880F991FAA1FD2
S1130940A41710F0A41B83955051B9F7A05DAA33E6
S113095008F0A95DA193009779F7B111B1931192B1
S1130960CB010C94B304DC01FC01672F7191772354
S1130970E1F7329704C07C916D9370836291AE1756
S10D0980BF07C8F30895F894FFCFF1
S113098A456E7465722050617373776F72643A00AE
S113099A416363657373204772616E7465642100F1
S11309AA446F6F7220436C6F73696E672E2E2E002C
S11309BA4C6F636B6564204F7574210057616974C9
S11309CA203330207365636F6E64730057726F6EE1
S11309DA672050617373776F7264210020617474A5
S11309EA656D707473206C6566740031323334310A
S11309FA32334134353642373839432A30234400B6
S9030000FC
